{
  "contractName": "EtherStore",
  "abi": [
    {
      "constant": false,
      "inputs": [],
      "name": "withdrawBalance",
      "outputs": [],
      "payable": false,
      "stateMutability": "nonpayable",
      "type": "function"
    }
  ],
  "bytecode": "0x608060405234801561001057600080fd5b5061016d806100206000396000f3fe608060405234801561001057600080fd5b506004361061002b5760003560e01c80635fd8c71014610030575b600080fd5b61003861003a565b005b60008060003373ffffffffffffffffffffffffffffffffffffffff1673ffffffffffffffffffffffffffffffffffffffff16815260200190815260200160002054905060003373ffffffffffffffffffffffffffffffffffffffff168260405180600001905060006040518083038185875af1925050503d80600081146100dd576040519150601f19603f3d011682016040523d82523d6000602084013e6100e2565b606091505b50509050806100f057600080fd5b60008060003373ffffffffffffffffffffffffffffffffffffffff1673ffffffffffffffffffffffffffffffffffffffff16815260200190815260200160002081905550505056fea265627a7a72315820ebe7cd5aa01d31446933821e12996c447ec58161359bf4b8c289975fd9f42f9f64736f6c63430005100032",
  "source": "// From https://github.com/sigp/solidity-security-blog\n// Re-Entrancy\n\npragma solidity ^0.5.0;\n\ncontract EtherStore {\n    mapping(address => uint256) private userBalances;\n\n    function withdrawBalance() public {\n        uint256 amountToWithdraw = userBalances[msg.sender];\n        (bool success, ) = msg.sender.call.value(amountToWithdraw)(\"\"); // At this point, the caller's code is executed, and can call withdrawBalance again\n        require(success);\n        userBalances[msg.sender] = 0;\n    }\n}\n",
  "sourcePath": "/home/joffreyred/contracts/reentrancy/EtherStore.sol",
  "compiler": {
    "name": "solc",
    "version": "0.5.16+commit.9c3226ce.Emscripten.clang"
  },
  "schemaVersion": "3.4.3",
  "updatedAt": "2022-01-06T13:43:29.026Z",
  "devdoc": {
    "methods": {}
  },
  "userdoc": {
    "methods": {}
  }
}