{
  "contractName": "EtherStoreFixed",
  "abi": [
    {
      "constant": false,
      "inputs": [],
      "name": "withdrawBalance",
      "outputs": [],
      "payable": false,
      "stateMutability": "nonpayable",
      "type": "function"
    }
  ],
  "bytecode": "0x608060405234801561001057600080fd5b50610140806100206000396000f3fe608060405234801561001057600080fd5b506004361061002b5760003560e01c80635fd8c71014610030575b600080fd5b61003861003a565b005b60008060003373ffffffffffffffffffffffffffffffffffffffff1673ffffffffffffffffffffffffffffffffffffffff16815260200190815260200160002054905060008060003373ffffffffffffffffffffffffffffffffffffffff1673ffffffffffffffffffffffffffffffffffffffff168152602001908152602001600020819055503373ffffffffffffffffffffffffffffffffffffffff166108fc829081150290604051600060405180830381858888f19350505050158015610107573d6000803e3d6000fd5b505056fea265627a7a7231582098eded0c2c4406583c544211121f08eb4a83380424108a02cd8898959035b87564736f6c63430005100032",
  "source": "// From https://github.com/sigp/solidity-security-blog\n// Fixed the Re-Entrancy vulneravility\n// 1. user transfer()\n// 2. finish all internal work (ie. state changes) first before calling extenral functions\n// 3. can also use mutex, but need to be very careful about deadlocks nad livelocks\n//    can use OpenZepplin's ReentrancyGuard nonReentrant modifier\n\npragma solidity ^0.5.0;\n\ncontract EtherStoreFixed {\n    mapping(address => uint256) private userBalances;\n\n    function withdrawBalance() external {\n        uint256 amountToWithdraw = userBalances[msg.sender];\n        // finish all internal work first\n        userBalances[msg.sender] = 0;\n        // use transfer(), limit gas (2300)\n        msg.sender.transfer(amountToWithdraw);\n    }\n}\n",
  "sourcePath": "/home/joffreyred/contracts/reentrancy/EtherStoreFixed.sol",
  "compiler": {
    "name": "solc",
    "version": "0.5.16+commit.9c3226ce.Emscripten.clang"
  },
  "schemaVersion": "3.4.3",
  "updatedAt": "2022-01-06T13:43:29.028Z",
  "devdoc": {
    "methods": {}
  },
  "userdoc": {
    "methods": {}
  }
}