{
  "contractName": "Proxy",
  "abi": [
    {
      "inputs": [],
      "payable": false,
      "stateMutability": "nonpayable",
      "type": "constructor"
    },
    {
      "constant": false,
      "inputs": [
        {
          "internalType": "address",
          "name": "callee",
          "type": "address"
        },
        {
          "internalType": "bytes",
          "name": "_data",
          "type": "bytes"
        }
      ],
      "name": "forward",
      "outputs": [],
      "payable": false,
      "stateMutability": "nonpayable",
      "type": "function"
    }
  ],
  "bytecode": "0x608060405234801561001057600080fd5b50336000806101000a81548173ffffffffffffffffffffffffffffffffffffffff021916908373ffffffffffffffffffffffffffffffffffffffff160217905550610205806100606000396000f3fe608060405234801561001057600080fd5b506004361061002b5760003560e01c80636fadcf7214610030575b600080fd5b6101096004803603604081101561004657600080fd5b81019080803573ffffffffffffffffffffffffffffffffffffffff1690602001909291908035906020019064010000000081111561008357600080fd5b82018360208201111561009557600080fd5b803590602001918460018302840111640100000000831117156100b757600080fd5b91908080601f016020809104026020016040519081016040528093929190818152602001838380828437600081840152601f19601f82011690508083019250505050505050919291929050505061010b565b005b60008273ffffffffffffffffffffffffffffffffffffffff16826040518082805190602001908083835b602083106101585780518252602082019150602081019050602083039250610135565b6001836020036101000a038019825116818451168082178552505050505050905001915050600060405180830381855af49150503d80600081146101b8576040519150601f19603f3d011682016040523d82523d6000602084013e6101bd565b606091505b50509050806101cb57600080fd5b50505056fea265627a7a72315820c7b5c413e9d8d74e057c6d3fa988265c23a852cf5921a3841f4b3d53f2a8dfbc64736f6c63430005100032",
  "source": "// From https://swcregistry.io/docs/SWC-112\n// Delegatecall to Untrusted Callee\n\n// Calling into untrusted contracts is very dangerous, as the code at the target address can change any storage values of the caller and has full control over the caller's balance.\n\npragma solidity ^0.5.0;\n\ncontract Proxy {\n    address private owner;\n\n    constructor() public {\n        owner = msg.sender;\n    }\n\n    function forward(address callee, bytes memory _data) public {\n        (bool success, ) = callee.delegatecall(_data);\n        require(success);\n    }\n\n}\n",
  "sourcePath": "/home/joffreyred/contracts/mythril-examples/Proxy.sol",
  "compiler": {
    "name": "solc",
    "version": "0.5.16+commit.9c3226ce.Emscripten.clang"
  },
  "schemaVersion": "3.4.3",
  "updatedAt": "2022-01-06T13:43:29.024Z",
  "devdoc": {
    "methods": {}
  },
  "userdoc": {
    "methods": {}
  }
}