{
  "contractName": "Refunder",
  "abi": [
    {
      "inputs": [],
      "payable": false,
      "stateMutability": "nonpayable",
      "type": "constructor"
    },
    {
      "constant": true,
      "inputs": [
        {
          "internalType": "address",
          "name": "",
          "type": "address"
        }
      ],
      "name": "refunds",
      "outputs": [
        {
          "internalType": "uint256",
          "name": "",
          "type": "uint256"
        }
      ],
      "payable": false,
      "stateMutability": "view",
      "type": "function"
    },
    {
      "constant": false,
      "inputs": [],
      "name": "refundAll",
      "outputs": [],
      "payable": false,
      "stateMutability": "nonpayable",
      "type": "function"
    }
  ],
  "bytecode": "0x608060405234801561001057600080fd5b5060007379b483371e87d664cd39491b5f06250165e4b18490806001815401808255809150509060018203906000526020600020016000909192909190916101000a81548173ffffffffffffffffffffffffffffffffffffffff021916908373ffffffffffffffffffffffffffffffffffffffff16021790555050600073858b0014bcd3c207a144ef0802c766bcae5ed3a890806001815401808255809150509060018203906000526020600020016000909192909190916101000a81548173ffffffffffffffffffffffffffffffffffffffff021916908373ffffffffffffffffffffffffffffffffffffffff160217905550506101f4806101146000396000f3fe608060405234801561001057600080fd5b50600436106100365760003560e01c806338e771ab1461003b578063bc3da53514610045575b600080fd5b61004361009d565b005b6100876004803603602081101561005b57600080fd5b81019080803573ffffffffffffffffffffffffffffffffffffffff1690602001909291905050506101a7565b6040518082815260200191505060405180910390f35b60005b6000805490508110156101a457600081815481106100ba57fe5b9060005260206000200160009054906101000a900473ffffffffffffffffffffffffffffffffffffffff1673ffffffffffffffffffffffffffffffffffffffff166108fc6001600080858154811061010e57fe5b9060005260206000200160009054906101000a900473ffffffffffffffffffffffffffffffffffffffff1673ffffffffffffffffffffffffffffffffffffffff1673ffffffffffffffffffffffffffffffffffffffff168152602001908152602001600020549081150290604051600060405180830381858888f1935050505061019757600080fd5b80806001019150506100a0565b50565b6001602052806000526040600020600091509050548156fea265627a7a72315820b4e86c4e50b8bdcb71523e98ef19a0fdb3f00392ad180535f9870c1a567e272464736f6c63430005100032",
  "source": "// From https://swcregistry.io/docs/SWC-113\n// DoS with Failed Call\n\npragma solidity ^0.5.0;\n\ncontract Refunder {\n    address payable[] private refundAddresses;\n    mapping(address => uint256) public refunds;\n\n    constructor() public {\n        refundAddresses.push(\n            address(0x79B483371E87d664cd39491b5F06250165e4b184)\n        );\n        refundAddresses.push(\n            address(0x858B0014BcD3c207A144ef0802c766BCAe5eD3A8)\n        );\n    }\n\n    // bad\n    // Favor pull over push for external calls\n    // May also exceed gas limit\n    function refundAll() public {\n        for (uint256 x; x < refundAddresses.length; x++) {\n            // arbitrary length iteration based on how many addresses participated\n            require(refundAddresses[x].send(refunds[refundAddresses[x]])); // doubly bad, now a single failure on send will hold up all funds\n        }\n    }\n\n}\n",
  "sourcePath": "/home/joffreyred/contracts/mythril-examples/Refunder.sol",
  "compiler": {
    "name": "solc",
    "version": "0.5.16+commit.9c3226ce.Emscripten.clang"
  },
  "schemaVersion": "3.4.3",
  "updatedAt": "2022-01-06T13:43:29.025Z",
  "devdoc": {
    "methods": {}
  },
  "userdoc": {
    "methods": {}
  }
}