{
  "contractName": "Roulette",
  "abi": [
    {
      "inputs": [],
      "payable": true,
      "stateMutability": "payable",
      "type": "constructor"
    },
    {
      "payable": true,
      "stateMutability": "payable",
      "type": "fallback"
    },
    {
      "constant": true,
      "inputs": [],
      "name": "pastBlockTime",
      "outputs": [
        {
          "internalType": "uint256",
          "name": "",
          "type": "uint256"
        }
      ],
      "payable": false,
      "stateMutability": "view",
      "type": "function"
    }
  ],
  "bytecode": "0x6080604052610101806100136000396000f3fe608060405260043610601c5760003560e01c806358d02b0914609e575b678ac7230489e800003414602f57600080fd5b600054421415603d57600080fd5b426000819055506000600f4281604f57fe5b061415609c573373ffffffffffffffffffffffffffffffffffffffff166108fc479081150290604051600060405180830381858888f19350505050158015609a573d6000803e3d6000fd5b505b005b34801560a957600080fd5b5060b060c6565b6040518082815260200191505060405180910390f35b6000548156fea265627a7a723158209093d50a24ed96ae9745875ec02fafd21a9ebb4f456f539bc8c1a13b990f6ae464736f6c63430005100032",
  "source": "// From https://github.com/sigp/solidity-security-blog\n// Block time manipulation\n\n// block.timestamp or its alias now can be manipulated by miners if they have some incentive to do so.\n// Fix: use block.number and an average block time to estimate times\n\npragma solidity ^0.5.0;\n\ncontract Roulette {\n    uint256 public pastBlockTime; // Forces one bet per block\n\n    constructor() public payable {} // initially fund contract\n\n    // fallback function used to make a bet\n    function() external payable {\n        require(msg.value == 10 ether); // must send 10 ether to play\n        require(now != pastBlockTime); // only 1 transaction per block\n        pastBlockTime = now;\n        if (now % 15 == 0) {\n            // winner\n            msg.sender.transfer(address(this).balance);\n        }\n    }\n}\n",
  "sourcePath": "/home/joffreyred/contracts/solhint-examples/Roulette.sol",
  "compiler": {
    "name": "solc",
    "version": "0.5.16+commit.9c3226ce.Emscripten.clang"
  },
  "schemaVersion": "3.4.3",
  "updatedAt": "2022-01-06T13:43:29.034Z",
  "devdoc": {
    "methods": {}
  },
  "userdoc": {
    "methods": {}
  }
}